:100000000C9462000C948A000C948A000C948A0070
:100010000C948A000C948A000C948A000C948A0038
:100020000C948A000C948A000C948A000C9480042E
:100030000C948A000C948A000C948A000C948A0018
:100040000C94DE030C948A000C944E040C94280447
:100050000C948A000C948A000C948A000C948A00F8
:100060000C948A000C948A000000000024002700F1
:100070002A0000000000250028002B0000000000DE
:1000800023002600290004040404040404040202DA
:100090000202020203030303030301020408102007
:1000A0004080010204081020010204081020000012
:1000B0000008000201000003040700000000000027
:1000C00000003C0511241FBECFEFD8E0DEBFCDBF3E
:1000D00011E0A0E0B1E0EAEAFFE002C005900D9275
:1000E000A231B107D9F721E0A2E1B1E001C01D9230
:1000F000AC3EB207E1F710E0C2E6D0E004C02197C1
:10010000FE010E94CD07C136D107C9F70E94B6058E
:100110000C94D3070C9400008F929F92AF92BF92E1
:10012000FF920F931F93CF93DF93F090E9012BE0A1
:100130002F1508F44CC02091EB0108E512E0021BDA
:10014000110927FD1395000F111F000F111F20919A
:10015000EA01C8E8D0E0C21BD10927FDD395CC0F36
:10016000DD1FCC0FDD1F4E010D2E000CAA08BB08B1
:100170009801012E000C440B550B281939094A0926
:100180005B09DC010E94880724EB30E040E050E08E
:100190000E945E07820E931EA41EB51E8C169D063D
:1001A0002CF0E801801691060CF4E4012297CC0FA4
:1001B000DD1F2FB7F8948F2D90E0FC01EE0FFF1F8D
:1001C000E80FF91FE754FE4FD283C1832FBFDF91A1
:1001D000CF911F910F91FF90BF90AF909F908F9004
:1001E0000895833081F028F4813099F08230A9F0AD
:1001F00008958730A9F08830C9F08430B1F4809137
:1002000080008F7D03C0809180008F778093800075
:10021000089584B58F7784BD089584B58F7DFBCF15
:100220008091B0008F778093B00008958091B000E6
:100230008F7DF9CFCF93DF93282F30E0F901E2557E
:10024000FF4F8491F901E656FF4FD491F901EA5727
:10025000FF4FC491CC23A1F081110E94F100EC2F3B
:10026000F0E0EE0FFF1FE458FF4FA591B491EC9121
:10027000ED2381E090E009F480E0DF91CF910895D3
:1002800080E090E0FACF1F93CF93DF93282F30E0E8
:10029000F901E255FF4F8491F901E656FF4FD491E1
:1002A000F901EA57FF4FC491CC23A9F0162F811111
:1002B0000E94F100EC2FF0E0EE0FFF1FEE58FF4F11
:1002C000A591B4918FB7F894EC91111108C0D09515
:1002D000DE23DC938FBFDF91CF911F910895DE2B3A
:1002E000F8CFCF93DF9390E0FC01E656FF4F2491C7
:1002F0008A579F4FFC0184918823D1F090E0880FAA
:10030000991FFC01E859FF4FA591B491FC01EE58EB
:10031000FF4FC591D49161110EC09FB7F8948C9195
:10032000E22FE0958E238C932881E223E8839FBF00
:10033000DF91CF9108958FB7F894EC91E22BEC9375
:100340008FBFF6CF3FB7F8948091180190911901B3
:10035000A0911A01B0911B0126B5A89B05C02F3FA3
:1003600019F00196A11DB11D3FBFBA2FA92F982FDB
:100370008827BC01CD01620F711D811D911D42E0D6
:10038000660F771F881F991F4A95D1F708950F931D
:100390001F938091E001882329F061E08091DE01C4
:1003A0000E94710160E08091DE010E94430183E0C0
:1003B00090E00197F1F761E08091DE010E94430136
:1003C00083E290E00197F1F760E08091DE010E9406
:1003D00043018091E001882329F060E08091DE01F3
:1003E0000E9471010E94A2016093E1017093E201F9
:1003F0008093E3019093E4018091DF010E941A0150
:10040000892BD9F40E94A2010091E1011091E2012F
:100410002091E3013091E401601B710B820B930B7F
:100420000091E5011091E6012091E7013091E8018A
:100430000617170728073907F8F60E94A2016093EC
:10044000E1017093E2018093E3019093E4018091D4
:10045000DF010E941A01892BD9F00E94A2010091AC
:10046000E1011091E2012091E3013091E401601B70
:10047000710B820B930B0091E5011091E601209125
:10048000E7013091E8010617170728073907F8F642
:100490000E94A2012091E1013091E201CB01821B77
:1004A000930B1F910F9108958F929F92AF92BF92DD
:1004B000CF92DF92EF92FF924B015C010E94A2016A
:1004C0006B017C010E94A2016C197D098E099F09B4
:1004D000683E734081059105A8F321E0821A9108D6
:1004E000A108B10888EEC80E83E0D81EE11CF11CFB
:1004F00081149104A104B10429F7FF90EF90DF90DB
:10050000CF90BF90AF909F908F900895AF92BF9281
:10051000CF92DF92EF92FF920F931F93CF93DF93CF
:100520006C017B018B01040F151FEB015E01AE18FE
:10053000BF08C017D10759F06991D601ED91FC9120
:100540000190F081E02DC6010995892B79F7C5014D
:10055000DF91CF911F910F91FF90EF90DF90CF909F
:10056000BF90AF900895FC01538D448D252F30E04E
:10057000842F90E0821B930B541710F0CF960895B0
:1005800001970895FC01918D828D981761F0A28DDD
:10059000AE0FBF2FB11D5D968C91928D9F5F9F73A3
:1005A000928F90E008958FEF9FEF0895FC01918D59
:1005B000828D981731F0828DE80FF11D858D90E0C6
:1005C00008958FEF9FEF0895FC01918D228D892F63
:1005D00090E0805C9F4F821B91098F73992708954B
:1005E0008CE191E00E94E40221E0892B09F420E0F3
:1005F000822F089580E090E0892B29F00E94F0027C
:1006000081110C9400000895FC01A48DA80FB92F4E
:10061000B11DA35ABF4F2C91848D90E001968F732A
:100620009927848FA689B7892C93A089B1898C9149
:10063000837080648C93938D848D981306C0028898
:10064000F389E02D80818F7D80830895EF92FF9262
:100650000F931F93CF93DF93EC0181E0888F9B8DE5
:100660008C8D98131AC0E889F989808185FF15C09F
:100670009FB7F894EE89FF896083E889F9898081C2
:100680008370806480839FBF81E090E0DF91CF9191
:100690001F910F91FF90EF900895F62E0B8D10E0B3
:1006A0000F5F1F4F0F731127E02E8C8D8E110CC022
:1006B0000FB607FCFACFE889F989808185FFF5CF6D
:1006C000CE010E940403F1CFEB8DEC0FFD2FF11D45
:1006D000E35AFF4FF0829FB7F8940B8FEA89FB89AA
:1006E00080818062CFCFCF93DF93EC01888D882308
:1006F000B9F0AA89BB89E889F9898C9185FD03C085
:10070000808186FD0DC00FB607FCF7CF8C9185FF69
:10071000F2CF808185FFEDCFCE010E940403E9CFA7
:10072000DF91CF910895E82FF0E0E255FF4FE4917B
:10073000E33031F138F4E130B9F0E230D9F061E082
:100740000C944301E73041F1E83079F1E430B9F736
:10075000809180008062809380008AEF90E0909387
:100760008B0080938A00089584B5806884BD8AEFE9
:1007700087BD089584B5806284BD8AEF88BD0895E1
:10078000809180008068809380008AEF90E0909351
:1007900089008093880008958091B00080688093DC
:1007A000B0008AEF8093B30008958091B00080621A
:1007B0008093B0008AEF8093B40008951F920F9247
:1007C0000FB60F9211242F933F938F939F93AF9364
:1007D000BF938091140190911501A0911601B091E1
:1007E00017013091130123E0230F2D3758F501969F
:1007F000A11DB11D20931301809314019093150145
:10080000A0931601B09317018091180190911901DE
:10081000A0911A01B0911B010196A11DB11D8093F9
:10082000180190931901A0931A01B0931B01BF9175
:10083000AF919F918F913F912F910F900FBE0F908D
:100840001F90189526E8230F0296A11DB11DD2CF47
:100850001F920F920FB60F9211242F933F934F9335
:100860005F936F937F938F939F93AF93BF93EF9318
:10087000FF938CE191E00E940403FF91EF91BF91FF
:10088000AF919F918F917F916F915F914F913F9128
:100890002F910F900FBE0F901F9018951F920F92DF
:1008A0000FB60F9211242F938F939F93EF93FF9383
:1008B000E0912C01F0912D018081E0913201F091C5
:1008C000330182FD1BC09081809135018F5F8F7352
:1008D00020913601821741F0E0913501F0E0E45EAD
:1008E000FE4F958F80933501FF91EF919F918F91EE
:1008F0002F910F900FBE0F901F9018958081F4CF0D
:100900001F920F920FB60F9211242F933F934F9384
:100910005F936F937F938F939F93AF93BF93CF9387
:10092000DF93EF93FF9380911201C091DD01D0E03E
:1009300087FF24C0109285001092840080911201DC
:100940008F5F8093120180911201082E000C990B89
:100950008C179D0724F4809112018C30C4F1809192
:10096000840090918500049680349C4908F47AC0F4
:100970008091840090918500049676C08091120148
:10098000082E000C990B8C179D07C4F6E0911201FC
:100990008E2FEE0F990BFC01EE0FFF1FE80FF91FD2
:1009A000E754FE4F808186FFC9CFE09112018E2F60
:1009B000EE0F990BFC01EE0FFF1FE80FF91FE75434
:1009C000FE4F808160E08F730E944301B7CF20917A
:1009D000840030918500E09112018E2FEE0F990B6B
:1009E000FC01EE0FFF1FE80FF91FE754FE4F818156
:1009F0009281820F931F9093890080938800E091E9
:100A000012018E2FEE0F990BFC01EE0FFF1FE80F66
:100A1000F91FE754FE4F808186FF11C0E09112015B
:100A20008E2FEE0F990BFC01EE0FFF1FE80FF91F41
:100A3000E754FE4F808161E08F730E944301FF9174
:100A4000EF91DF91CF91BF91AF919F918F917F9166
:100A50006F915F914F913F912F910F900FBE0F902B
:100A60001F90189580E49CE99093890080938800FA
:100A70008FEF80931201E3CF10921F0110921E019D
:100A800088EE93E0A0E0B0E08093200190932101F4
:100A9000A0932201B093230184E091E090931D0183
:100AA00080931C0185EC90E09093290180932801AC
:100AB00084EC90E090932B0180932A0180EC90E0ED
:100AC00090932D0180932C0181EC90E090932F0165
:100AD00080932E0182EC90E090933101809330015D
:100AE00086EC90E0909333018093320110923501AF
:100AF0001092360110923701109238018091DD0179
:100B00008C3080F591E0980F9093DD018093E9019E
:100B100090E0FC01EE0FFF1FE80FF91FE754FE4FB6
:100B200088EB9BE09283818383E08093DE0184E005
:100B30008093DF011092E00161E083E00E94710187
:100B400060E08091DF010E94710180E29EE4A0E0FC
:100B5000B0E08093E5019093E601A093E701B093A4
:100B6000E80108958FEF8093E901DECF789484B592
:100B7000826084BD84B5816084BD85B5826085BD99
:100B800085B5816085BD80916E00816080936E0027
:100B90001092810080918100826080938100809119
:100BA00081008160809381008091800081608093CA
:100BB00080008091B10084608093B1008091B0008A
:100BC00081608093B00080917A00846080937A0085
:100BD00080917A00826080937A0080917A008160AF
:100BE00080937A0080917A00806880937A001092D6
:100BF000C1008091E9018C3008F051C061E082E0D1
:100C00000E9471018091E901282F30E0F901EE0F77
:100C1000FF1FE20FF31FE754FE4F9081907C92601C
:100C200090831092EA011092EB012CE0622F0E9457
:100C3000C107829FB001112430E020E0AB01420FD8
:100C4000531FFA01EE0FFF1FE40FF51FE754FE4F8D
:100C5000908196FD16C02F5F3F4F2C30310571F704
:100C600081110FC01092800082E080938100109269
:100C7000850010928400B19A80916F008260809309
:100C80006F00E091E9018E2F90E0FC01EE0FFF1F55
:100C9000E80FF91FE754FE4F80818064808361E094
:100CA0008BE00E94710161E08CE00E94710161E0C3
:100CB0008DE00E94710161E088E00E94710161E0B5
:100CC00089E00E94710161E08AE00E94710161E0A7
:100CD0008BE00E9471018BE00E94930361E08AE047
:100CE0000E9471018AE00E949303E0912C01F0912F
:100CF0002D0182E08083E0912801F091290110828A
:100D0000E0912A01F0912B018FEC80831092340145
:100D1000E0913001F091310186E08083E0912E0175
:100D2000F0912F01808180618083E0912E01F0910C
:100D30002F01808188608083E0912E01F0912F0146
:100D4000808180688083E0912E01F0912F01808165
:100D50008F7D8083C0E0D0E08CE191E00E94C202F0
:100D60008133910541F58AE590E00E948C006CE2A8
:100D700071E080E090E00E9454020E94C70188392F
:100D8000944080F061E08CE00E94430160E08DE0DF
:100D90000E94430161E088E00E94430160E089E035
:100DA0000E9443012097C1F20E94F0028823A1F221
:100DB0000E940000D1CF8233910501F560E08CE004
:100DC0000E94430161E08DE00E94430160E088E001
:100DD0000E94430161E089E00E94430164EF71E0F9
:100DE00080E090E00E94540260E08CE00E944301A9
:100DF00060E08DE00E94430160E0CDCF8333910538
:100E000099F38433910501F1C59761F68DE290E085
:100E10000E948C006CE271E080E090E00E9454023D
:100E20000E94C7018839944008F443C061E08CE017
:100E30000E94430160E08DE00E94430160E088E091
:100E40000E94430161E01CC087E890E00E948C0092
:100E50006CE271E080E090E00E9454020E94C701C1
:100E60008839944030F160E08CE00E94430161E0F9
:100E70008DE00E94430161E088E00E94430160E050
:100E800089E00E94430164EF71E080E090E00E94FD
:100E9000540260E08CE00E94430160E08DE00E941B
:100EA000430160E088E00E94430160E089E00E9425
:100EB00043018AE590E00E948C0074CF052E97FBD9
:100EC0001EF400940E94750757FD07D00E949007FA
:100ED00007FC03D04EF40C9475075095409530955F
:100EE00021953F4F4F4F5F4F089590958095709596
:100EF00061957F4F8F4F9F4F08950E94B207A59F26
:100F0000900DB49F900DA49F800D911D1124089504
:100F1000B7FF0C947D070E947D07821B930B0895F9
:100F2000A1E21A2EAA1BBB1BFD010DC0AA1FBB1FED
:100F3000EE1FFF1FA217B307E407F50720F0A21B5F
:100F4000B30BE40BF50B661F771F881F991F1A94CC
:100F500069F760957095809590959B01AC01BD01F6
:100F6000CF010895A29FB001B39FC001A39F700D50
:100F7000811D1124911DB29F700D811D1124911DA1
:100F80000895991B79E004C0991F961708F0961BE5
:100F9000881F7A95C9F780950895EE0FFF1F059079
:0A0FA000F491E02D0994F894FFCFBE
:100FAA000000000026038602B3027303E402C202B1
:020FBA00D6025D
:00000001FF
